{
  "_format": "hh-sol-artifact-1",
  "contractName": "art",
  "sourceName": "contracts/art.sol",
  "abi": [
    {
      "inputs": [
        {
          "internalType": "string",
          "name": "name",
          "type": "string"
        },
        {
          "internalType": "string",
          "name": "symbol",
          "type": "string"
        }
      ],
      "stateMutability": "nonpayable",
      "type": "constructor"
    },
    {
      "anonymous": false,
      "inputs": [
        {
          "indexed": true,
          "internalType": "address",
          "name": "owner",
          "type": "address"
        },
        {
          "indexed": true,
          "internalType": "address",
          "name": "approved",
          "type": "address"
        },
        {
          "indexed": true,
          "internalType": "uint256",
          "name": "tokenId",
          "type": "uint256"
        }
      ],
      "name": "Approval",
      "type": "event"
    },
    {
      "anonymous": false,
      "inputs": [
        {
          "indexed": true,
          "internalType": "address",
          "name": "owner",
          "type": "address"
        },
        {
          "indexed": true,
          "internalType": "address",
          "name": "operator",
          "type": "address"
        },
        {
          "indexed": false,
          "internalType": "bool",
          "name": "approved",
          "type": "bool"
        }
      ],
      "name": "ApprovalForAll",
      "type": "event"
    },
    {
      "anonymous": false,
      "inputs": [
        {
          "indexed": true,
          "internalType": "address",
          "name": "previousOwner",
          "type": "address"
        },
        {
          "indexed": true,
          "internalType": "address",
          "name": "newOwner",
          "type": "address"
        }
      ],
      "name": "OwnershipTransferred",
      "type": "event"
    },
    {
      "anonymous": false,
      "inputs": [
        {
          "indexed": true,
          "internalType": "address",
          "name": "from",
          "type": "address"
        },
        {
          "indexed": true,
          "internalType": "address",
          "name": "to",
          "type": "address"
        },
        {
          "indexed": true,
          "internalType": "uint256",
          "name": "tokenId",
          "type": "uint256"
        }
      ],
      "name": "Transfer",
      "type": "event"
    },
    {
      "inputs": [],
      "name": "MAX_SUPPLY",
      "outputs": [
        {
          "internalType": "uint256",
          "name": "",
          "type": "uint256"
        }
      ],
      "stateMutability": "view",
      "type": "function"
    },
    {
      "inputs": [],
      "name": "MINT_PRICE",
      "outputs": [
        {
          "internalType": "uint256",
          "name": "",
          "type": "uint256"
        }
      ],
      "stateMutability": "view",
      "type": "function"
    },
    {
      "inputs": [
        {
          "internalType": "address",
          "name": "to",
          "type": "address"
        },
        {
          "internalType": "uint256",
          "name": "tokenId",
          "type": "uint256"
        }
      ],
      "name": "approve",
      "outputs": [],
      "stateMutability": "nonpayable",
      "type": "function"
    },
    {
      "inputs": [
        {
          "internalType": "address",
          "name": "owner",
          "type": "address"
        }
      ],
      "name": "balanceOf",
      "outputs": [
        {
          "internalType": "uint256",
          "name": "",
          "type": "uint256"
        }
      ],
      "stateMutability": "view",
      "type": "function"
    },
    {
      "inputs": [],
      "name": "flipMintState",
      "outputs": [],
      "stateMutability": "nonpayable",
      "type": "function"
    },
    {
      "inputs": [
        {
          "internalType": "uint256",
          "name": "tokenId",
          "type": "uint256"
        }
      ],
      "name": "getApproved",
      "outputs": [
        {
          "internalType": "address",
          "name": "",
          "type": "address"
        }
      ],
      "stateMutability": "view",
      "type": "function"
    },
    {
      "inputs": [
        {
          "internalType": "address",
          "name": "owner",
          "type": "address"
        },
        {
          "internalType": "address",
          "name": "operator",
          "type": "address"
        }
      ],
      "name": "isApprovedForAll",
      "outputs": [
        {
          "internalType": "bool",
          "name": "",
          "type": "bool"
        }
      ],
      "stateMutability": "view",
      "type": "function"
    },
    {
      "inputs": [
        {
          "internalType": "string",
          "name": "_tokenURI",
          "type": "string"
        }
      ],
      "name": "mint",
      "outputs": [],
      "stateMutability": "payable",
      "type": "function"
    },
    {
      "inputs": [],
      "name": "mintingIsActive",
      "outputs": [
        {
          "internalType": "bool",
          "name": "",
          "type": "bool"
        }
      ],
      "stateMutability": "view",
      "type": "function"
    },
    {
      "inputs": [],
      "name": "name",
      "outputs": [
        {
          "internalType": "string",
          "name": "",
          "type": "string"
        }
      ],
      "stateMutability": "view",
      "type": "function"
    },
    {
      "inputs": [],
      "name": "owner",
      "outputs": [
        {
          "internalType": "address",
          "name": "",
          "type": "address"
        }
      ],
      "stateMutability": "view",
      "type": "function"
    },
    {
      "inputs": [
        {
          "internalType": "uint256",
          "name": "tokenId",
          "type": "uint256"
        }
      ],
      "name": "ownerOf",
      "outputs": [
        {
          "internalType": "address",
          "name": "",
          "type": "address"
        }
      ],
      "stateMutability": "view",
      "type": "function"
    },
    {
      "inputs": [],
      "name": "renounceOwnership",
      "outputs": [],
      "stateMutability": "nonpayable",
      "type": "function"
    },
    {
      "inputs": [
        {
          "internalType": "address",
          "name": "from",
          "type": "address"
        },
        {
          "internalType": "address",
          "name": "to",
          "type": "address"
        },
        {
          "internalType": "uint256",
          "name": "tokenId",
          "type": "uint256"
        }
      ],
      "name": "safeTransferFrom",
      "outputs": [],
      "stateMutability": "nonpayable",
      "type": "function"
    },
    {
      "inputs": [
        {
          "internalType": "address",
          "name": "from",
          "type": "address"
        },
        {
          "internalType": "address",
          "name": "to",
          "type": "address"
        },
        {
          "internalType": "uint256",
          "name": "tokenId",
          "type": "uint256"
        },
        {
          "internalType": "bytes",
          "name": "_data",
          "type": "bytes"
        }
      ],
      "name": "safeTransferFrom",
      "outputs": [],
      "stateMutability": "nonpayable",
      "type": "function"
    },
    {
      "inputs": [
        {
          "internalType": "address",
          "name": "operator",
          "type": "address"
        },
        {
          "internalType": "bool",
          "name": "approved",
          "type": "bool"
        }
      ],
      "name": "setApprovalForAll",
      "outputs": [],
      "stateMutability": "nonpayable",
      "type": "function"
    },
    {
      "inputs": [
        {
          "internalType": "bytes4",
          "name": "interfaceId",
          "type": "bytes4"
        }
      ],
      "name": "supportsInterface",
      "outputs": [
        {
          "internalType": "bool",
          "name": "",
          "type": "bool"
        }
      ],
      "stateMutability": "view",
      "type": "function"
    },
    {
      "inputs": [],
      "name": "symbol",
      "outputs": [
        {
          "internalType": "string",
          "name": "",
          "type": "string"
        }
      ],
      "stateMutability": "view",
      "type": "function"
    },
    {
      "inputs": [
        {
          "internalType": "uint256",
          "name": "tokenId",
          "type": "uint256"
        }
      ],
      "name": "tokenURI",
      "outputs": [
        {
          "internalType": "string",
          "name": "",
          "type": "string"
        }
      ],
      "stateMutability": "view",
      "type": "function"
    },
    {
      "inputs": [
        {
          "internalType": "address",
          "name": "from",
          "type": "address"
        },
        {
          "internalType": "address",
          "name": "to",
          "type": "address"
        },
        {
          "internalType": "uint256",
          "name": "tokenId",
          "type": "uint256"
        }
      ],
      "name": "transferFrom",
      "outputs": [],
      "stateMutability": "nonpayable",
      "type": "function"
    },
    {
      "inputs": [
        {
          "internalType": "address",
          "name": "newOwner",
          "type": "address"
        }
      ],
      "name": "transferOwnership",
      "outputs": [],
      "stateMutability": "nonpayable",
      "type": "function"
    },
    {
      "inputs": [],
      "name": "withdrawal",
      "outputs": [],
      "stateMutability": "nonpayable",
      "type": "function"
    }
  ],
  "bytecode": "0x60806040526000600a60006101000a81548160ff0219169083151502179055503480156200002c57600080fd5b5060405162003784380380620037848339818101604052810190620000529190620002a8565b818181600090805190602001906200006c92919062000186565b5080600190805190602001906200008592919062000186565b505050620000a86200009c620000b860201b60201c565b620000c060201b60201c565b600160088190555050506200044c565b600033905090565b6000600760009054906101000a900473ffffffffffffffffffffffffffffffffffffffff16905081600760006101000a81548173ffffffffffffffffffffffffffffffffffffffff021916908373ffffffffffffffffffffffffffffffffffffffff1602179055508173ffffffffffffffffffffffffffffffffffffffff168173ffffffffffffffffffffffffffffffffffffffff167f8be0079c531659141344cd1fd0a4f28419497f9722a3daafe3b4186f6b6457e060405160405180910390a35050565b8280546200019490620003b8565b90600052602060002090601f016020900481019282620001b8576000855562000204565b82601f10620001d357805160ff191683800117855562000204565b8280016001018555821562000204579182015b8281111562000203578251825591602001919060010190620001e6565b5b50905062000213919062000217565b5090565b5b808211156200023257600081600090555060010162000218565b5090565b60006200024d62000247846200034f565b6200031b565b9050828152602081018484840111156200026657600080fd5b6200027384828562000382565b509392505050565b600082601f8301126200028d57600080fd5b81516200029f84826020860162000236565b91505092915050565b60008060408385031215620002bc57600080fd5b600083015167ffffffffffffffff811115620002d757600080fd5b620002e5858286016200027b565b925050602083015167ffffffffffffffff8111156200030357600080fd5b62000311858286016200027b565b9150509250929050565b6000604051905081810181811067ffffffffffffffff821117156200034557620003446200041d565b5b8060405250919050565b600067ffffffffffffffff8211156200036d576200036c6200041d565b5b601f19601f8301169050602081019050919050565b60005b83811015620003a257808201518184015260208101905062000385565b83811115620003b2576000848401525b50505050565b60006002820490506001821680620003d157607f821691505b60208210811415620003e857620003e7620003ee565b5b50919050565b7f4e487b7100000000000000000000000000000000000000000000000000000000600052602260045260246000fd5b7f4e487b7100000000000000000000000000000000000000000000000000000000600052604160045260246000fd5b613328806200045c6000396000f3fe6080604052600436106101355760003560e01c8063715018a6116100ab578063c002d23d1161006f578063c002d23d14610400578063c87b56dd1461042b578063d4e9329214610468578063d85d3d271461047f578063e985e9c51461049b578063f2fde38b146104d857610135565b8063715018a6146103415780638da5cb5b1461035857806395d89b4114610383578063a22cb465146103ae578063b88d4fde146103d757610135565b806332cb6b0c116100fd57806332cb6b0c1461023157806342842e0e1461025c5780634728b9f41461028557806359c74f29146102b05780636352211e146102c757806370a082311461030457610135565b806301ffc9a71461013a57806306fdde0314610177578063081812fc146101a2578063095ea7b3146101df57806323b872dd14610208575b600080fd5b34801561014657600080fd5b50610161600480360381019061015c91906122d5565b610501565b60405161016e9190612c00565b60405180910390f35b34801561018357600080fd5b5061018c6105e3565b6040516101999190612c1b565b60405180910390f35b3480156101ae57600080fd5b506101c960048036038101906101c49190612368565b610675565b6040516101d69190612b99565b60405180910390f35b3480156101eb57600080fd5b5061020660048036038101906102019190612299565b6106fa565b005b34801561021457600080fd5b5061022f600480360381019061022a9190612193565b610812565b005b34801561023d57600080fd5b50610246610872565b6040516102539190612ebd565b60405180910390f35b34801561026857600080fd5b50610283600480360381019061027e9190612193565b610878565b005b34801561029157600080fd5b5061029a610898565b6040516102a79190612c00565b60405180910390f35b3480156102bc57600080fd5b506102c56108ab565b005b3480156102d357600080fd5b506102ee60048036038101906102e99190612368565b610953565b6040516102fb9190612b99565b60405180910390f35b34801561031057600080fd5b5061032b6004803603810190610326919061212e565b610a05565b6040516103389190612ebd565b60405180910390f35b34801561034d57600080fd5b50610356610abd565b005b34801561036457600080fd5b5061036d610b45565b60405161037a9190612b99565b60405180910390f35b34801561038f57600080fd5b50610398610b6f565b6040516103a59190612c1b565b60405180910390f35b3480156103ba57600080fd5b506103d560048036038101906103d0919061225d565b610c01565b005b3480156103e357600080fd5b506103fe60048036038101906103f991906121e2565b610d82565b005b34801561040c57600080fd5b50610415610de4565b6040516104229190612ebd565b60405180910390f35b34801561043757600080fd5b50610452600480360381019061044d9190612368565b610def565b60405161045f9190612c1b565b60405180910390f35b34801561047457600080fd5b5061047d610f41565b005b61049960048036038101906104949190612327565b611006565b005b3480156104a757600080fd5b506104c260048036038101906104bd9190612157565b6110da565b6040516104cf9190612c00565b60405180910390f35b3480156104e457600080fd5b506104ff60048036038101906104fa919061212e565b61116e565b005b60007f80ac58cd000000000000000000000000000000000000000000000000000000007bffffffffffffffffffffffffffffffffffffffffffffffffffffffff1916827bffffffffffffffffffffffffffffffffffffffffffffffffffffffff191614806105cc57507f5b5e139f000000000000000000000000000000000000000000000000000000007bffffffffffffffffffffffffffffffffffffffffffffffffffffffff1916827bffffffffffffffffffffffffffffffffffffffffffffffffffffffff1916145b806105dc57506105db82611266565b5b9050919050565b6060600080546105f29061311d565b80601f016020809104026020016040519081016040528092919081815260200182805461061e9061311d565b801561066b5780601f106106405761010080835404028352916020019161066b565b820191906000526020600020905b81548152906001019060200180831161064e57829003601f168201915b5050505050905090565b6000610680826112d0565b6106bf576040517f08c379a00000000000000000000000000000000000000000000000000000000081526004016106b690612dfd565b60405180910390fd5b6004600083815260200190815260200160002060009054906101000a900473ffffffffffffffffffffffffffffffffffffffff169050919050565b600061070582610953565b90508073ffffffffffffffffffffffffffffffffffffffff168373ffffffffffffffffffffffffffffffffffffffff161415610776576040517f08c379a000000000000000000000000000000000000000000000000000000000815260040161076d90612e7d565b60405180910390fd5b8073ffffffffffffffffffffffffffffffffffffffff1661079561133c565b73ffffffffffffffffffffffffffffffffffffffff1614806107c457506107c3816107be61133c565b6110da565b5b610803576040517f08c379a00000000000000000000000000000000000000000000000000000000081526004016107fa90612d3d565b60405180910390fd5b61080d8383611344565b505050565b61082361081d61133c565b826113fd565b610862576040517f08c379a000000000000000000000000000000000000000000000000000000000815260040161085990612e9d565b60405180910390fd5b61086d8383836114db565b505050565b61271081565b61089383838360405180602001604052806000815250610d82565b505050565b600a60009054906101000a900460ff1681565b6108b361133c565b73ffffffffffffffffffffffffffffffffffffffff166108d1610b45565b73ffffffffffffffffffffffffffffffffffffffff1614610927576040517f08c379a000000000000000000000000000000000000000000000000000000000815260040161091e90612e1d565b60405180910390fd5b600a60009054906101000a900460ff1615600a60006101000a81548160ff021916908315150217905550565b6000806002600084815260200190815260200160002060009054906101000a900473ffffffffffffffffffffffffffffffffffffffff169050600073ffffffffffffffffffffffffffffffffffffffff168173ffffffffffffffffffffffffffffffffffffffff1614156109fc576040517f08c379a00000000000000000000000000000000000000000000000000000000081526004016109f390612d7d565b60405180910390fd5b80915050919050565b60008073ffffffffffffffffffffffffffffffffffffffff168273ffffffffffffffffffffffffffffffffffffffff161415610a76576040517f08c379a0000000000000000000000000000000000000000000000000000000008152600401610a6d90612d5d565b60405180910390fd5b600360008373ffffffffffffffffffffffffffffffffffffffff1673ffffffffffffffffffffffffffffffffffffffff168152602001908152602001600020549050919050565b610ac561133c565b73ffffffffffffffffffffffffffffffffffffffff16610ae3610b45565b73ffffffffffffffffffffffffffffffffffffffff1614610b39576040517f08c379a0000000000000000000000000000000000000000000000000000000008152600401610b3090612e1d565b60405180910390fd5b610b436000611737565b565b6000600760009054906101000a900473ffffffffffffffffffffffffffffffffffffffff16905090565b606060018054610b7e9061311d565b80601f0160208091040260200160405190810160405280929190818152602001828054610baa9061311d565b8015610bf75780601f10610bcc57610100808354040283529160200191610bf7565b820191906000526020600020905b815481529060010190602001808311610bda57829003601f168201915b5050505050905090565b610c0961133c565b73ffffffffffffffffffffffffffffffffffffffff168273ffffffffffffffffffffffffffffffffffffffff161415610c77576040517f08c379a0000000000000000000000000000000000000000000000000000000008152600401610c6e90612cdd565b60405180910390fd5b8060056000610c8461133c565b73ffffffffffffffffffffffffffffffffffffffff1673ffffffffffffffffffffffffffffffffffffffff16815260200190815260200160002060008473ffffffffffffffffffffffffffffffffffffffff1673ffffffffffffffffffffffffffffffffffffffff16815260200190815260200160002060006101000a81548160ff0219169083151502179055508173ffffffffffffffffffffffffffffffffffffffff16610d3161133c565b73ffffffffffffffffffffffffffffffffffffffff167f17307eab39ab6107e8899845ad3d59bd9653f200f220920489ca2b5937696c3183604051610d769190612c00565b60405180910390a35050565b610d93610d8d61133c565b836113fd565b610dd2576040517f08c379a0000000000000000000000000000000000000000000000000000000008152600401610dc990612e9d565b60405180910390fd5b610dde848484846117fd565b50505050565b66b1a2bc2ec5000081565b6060610dfa826112d0565b610e39576040517f08c379a0000000000000000000000000000000000000000000000000000000008152600401610e3090612ddd565b60405180910390fd5b6000600660008481526020019081526020016000208054610e599061311d565b80601f0160208091040260200160405190810160405280929190818152602001828054610e859061311d565b8015610ed25780601f10610ea757610100808354040283529160200191610ed2565b820191906000526020600020905b815481529060010190602001808311610eb557829003601f168201915b505050505090506000610ee3611859565b9050600081511415610ef9578192505050610f3c565b600082511115610f2e578082604051602001610f16929190612b75565b60405160208183030381529060405292505050610f3c565b610f3784611870565b925050505b919050565b610f4961133c565b73ffffffffffffffffffffffffffffffffffffffff16610f67610b45565b73ffffffffffffffffffffffffffffffffffffffff1614610fbd576040517f08c379a0000000000000000000000000000000000000000000000000000000008152600401610fb490612e1d565b60405180910390fd5b3373ffffffffffffffffffffffffffffffffffffffff166108fc479081150290604051600060405180830381858888f19350505050158015611003573d6000803e3d6000fd5b50565b61271060016110156009611917565b61101f9190612fac565b1115611060576040517f08c379a000000000000000000000000000000000000000000000000000000000815260040161105790612c3d565b60405180910390fd5b3466b1a2bc2ec5000011156110aa576040517f08c379a00000000000000000000000000000000000000000000000000000000081526004016110a190612cfd565b60405180910390fd5b6110b46009611925565b60006110c06009611917565b90506110cc338261193b565b6110d68183611959565b5050565b6000600560008473ffffffffffffffffffffffffffffffffffffffff1673ffffffffffffffffffffffffffffffffffffffff16815260200190815260200160002060008373ffffffffffffffffffffffffffffffffffffffff1673ffffffffffffffffffffffffffffffffffffffff16815260200190815260200160002060009054906101000a900460ff16905092915050565b61117661133c565b73ffffffffffffffffffffffffffffffffffffffff16611194610b45565b73ffffffffffffffffffffffffffffffffffffffff16146111ea576040517f08c379a00000000000000000000000000000000000000000000000000000000081526004016111e190612e1d565b60405180910390fd5b600073ffffffffffffffffffffffffffffffffffffffff168173ffffffffffffffffffffffffffffffffffffffff16141561125a576040517f08c379a000000000000000000000000000000000000000000000000000000000815260040161125190612c7d565b60405180910390fd5b61126381611737565b50565b60007f01ffc9a7000000000000000000000000000000000000000000000000000000007bffffffffffffffffffffffffffffffffffffffffffffffffffffffff1916827bffffffffffffffffffffffffffffffffffffffffffffffffffffffff1916149050919050565b60008073ffffffffffffffffffffffffffffffffffffffff166002600084815260200190815260200160002060009054906101000a900473ffffffffffffffffffffffffffffffffffffffff1673ffffffffffffffffffffffffffffffffffffffff1614159050919050565b600033905090565b816004600083815260200190815260200160002060006101000a81548173ffffffffffffffffffffffffffffffffffffffff021916908373ffffffffffffffffffffffffffffffffffffffff160217905550808273ffffffffffffffffffffffffffffffffffffffff166113b783610953565b73ffffffffffffffffffffffffffffffffffffffff167f8c5be1e5ebec7d5bd14f71427d1e84f3dd0314c0f7b2291e5b200ac8c7c3b92560405160405180910390a45050565b6000611408826112d0565b611447576040517f08c379a000000000000000000000000000000000000000000000000000000000815260040161143e90612d1d565b60405180910390fd5b600061145283610953565b90508073ffffffffffffffffffffffffffffffffffffffff168473ffffffffffffffffffffffffffffffffffffffff1614806114c157508373ffffffffffffffffffffffffffffffffffffffff166114a984610675565b73ffffffffffffffffffffffffffffffffffffffff16145b806114d257506114d181856110da565b5b91505092915050565b8273ffffffffffffffffffffffffffffffffffffffff166114fb82610953565b73ffffffffffffffffffffffffffffffffffffffff1614611551576040517f08c379a000000000000000000000000000000000000000000000000000000000815260040161154890612e3d565b60405180910390fd5b600073ffffffffffffffffffffffffffffffffffffffff168273ffffffffffffffffffffffffffffffffffffffff1614156115c1576040517f08c379a00000000000000000000000000000000000000000000000000000000081526004016115b890612cbd565b60405180910390fd5b6115cc8383836119cd565b6115d7600082611344565b6001600360008573ffffffffffffffffffffffffffffffffffffffff1673ffffffffffffffffffffffffffffffffffffffff16815260200190815260200160002060008282546116279190613033565b925050819055506001600360008473ffffffffffffffffffffffffffffffffffffffff1673ffffffffffffffffffffffffffffffffffffffff168152602001908152602001600020600082825461167e9190612fac565b92505081905550816002600083815260200190815260200160002060006101000a81548173ffffffffffffffffffffffffffffffffffffffff021916908373ffffffffffffffffffffffffffffffffffffffff160217905550808273ffffffffffffffffffffffffffffffffffffffff168473ffffffffffffffffffffffffffffffffffffffff167fddf252ad1be2c89b69c2b068fc378daa952ba7f163c4a11628f55a4df523b3ef60405160405180910390a4505050565b6000600760009054906101000a900473ffffffffffffffffffffffffffffffffffffffff16905081600760006101000a81548173ffffffffffffffffffffffffffffffffffffffff021916908373ffffffffffffffffffffffffffffffffffffffff1602179055508173ffffffffffffffffffffffffffffffffffffffff168173ffffffffffffffffffffffffffffffffffffffff167f8be0079c531659141344cd1fd0a4f28419497f9722a3daafe3b4186f6b6457e060405160405180910390a35050565b6118088484846114db565b611814848484846119d2565b611853576040517f08c379a000000000000000000000000000000000000000000000000000000000815260040161184a90612c5d565b60405180910390fd5b50505050565b606060405180602001604052806000815250905090565b606061187b826112d0565b6118ba576040517f08c379a00000000000000000000000000000000000000000000000000000000081526004016118b190612e5d565b60405180910390fd5b60006118c4611859565b905060008151116118e4576040518060200160405280600081525061190f565b806118ee84611b69565b6040516020016118ff929190612b75565b6040516020818303038152906040525b915050919050565b600081600001549050919050565b6001816000016000828254019250508190555050565b611955828260405180602001604052806000815250611d16565b5050565b611962826112d0565b6119a1576040517f08c379a000000000000000000000000000000000000000000000000000000000815260040161199890612d9d565b60405180910390fd5b806006600084815260200190815260200160002090805190602001906119c8929190611f52565b505050565b505050565b60006119f38473ffffffffffffffffffffffffffffffffffffffff16611d71565b15611b5c578373ffffffffffffffffffffffffffffffffffffffff1663150b7a02611a1c61133c565b8786866040518563ffffffff1660e01b8152600401611a3e9493929190612bb4565b602060405180830381600087803b158015611a5857600080fd5b505af1925050508015611a8957506040513d601f19601f82011682018060405250810190611a8691906122fe565b60015b611b0c573d8060008114611ab9576040519150601f19603f3d011682016040523d82523d6000602084013e611abe565b606091505b50600081511415611b04576040517f08c379a0000000000000000000000000000000000000000000000000000000008152600401611afb90612c5d565b60405180910390fd5b805181602001fd5b63150b7a0260e01b7bffffffffffffffffffffffffffffffffffffffffffffffffffffffff1916817bffffffffffffffffffffffffffffffffffffffffffffffffffffffff191614915050611b61565b600190505b949350505050565b60606000821415611bb1576040518060400160405280600181526020017f30000000000000000000000000000000000000000000000000000000000000008152509050611d11565b600082905060005b60008214611be3578080611bcc9061314f565b915050600a82611bdc9190613002565b9150611bb9565b60008167ffffffffffffffff811115611c25577f4e487b7100000000000000000000000000000000000000000000000000000000600052604160045260246000fd5b6040519080825280601f01601f191660200182016040528015611c575781602001600182028036833780820191505090505b5090505b60008514611d0a57600182611c709190613033565b9150600a85611c7f9190613198565b6030611c8b9190612fac565b60f81b818381518110611cc7577f4e487b7100000000000000000000000000000000000000000000000000000000600052603260045260246000fd5b60200101907effffffffffffffffffffffffffffffffffffffffffffffffffffffffffffff1916908160001a905350600a85611d039190613002565b9450611c5b565b8093505050505b919050565b611d208383611d84565b611d2d60008484846119d2565b611d6c576040517f08c379a0000000000000000000000000000000000000000000000000000000008152600401611d6390612c5d565b60405180910390fd5b505050565b600080823b905060008111915050919050565b600073ffffffffffffffffffffffffffffffffffffffff168273ffffffffffffffffffffffffffffffffffffffff161415611df4576040517f08c379a0000000000000000000000000000000000000000000000000000000008152600401611deb90612dbd565b60405180910390fd5b611dfd816112d0565b15611e3d576040517f08c379a0000000000000000000000000000000000000000000000000000000008152600401611e3490612c9d565b60405180910390fd5b611e49600083836119cd565b6001600360008473ffffffffffffffffffffffffffffffffffffffff1673ffffffffffffffffffffffffffffffffffffffff1681526020019081526020016000206000828254611e999190612fac565b92505081905550816002600083815260200190815260200160002060006101000a81548173ffffffffffffffffffffffffffffffffffffffff021916908373ffffffffffffffffffffffffffffffffffffffff160217905550808273ffffffffffffffffffffffffffffffffffffffff16600073ffffffffffffffffffffffffffffffffffffffff167fddf252ad1be2c89b69c2b068fc378daa952ba7f163c4a11628f55a4df523b3ef60405160405180910390a45050565b828054611f5e9061311d565b90600052602060002090601f016020900481019282611f805760008555611fc7565b82601f10611f9957805160ff1916838001178555611fc7565b82800160010185558215611fc7579182015b82811115611fc6578251825591602001919060010190611fab565b5b509050611fd49190611fd8565b5090565b5b80821115611ff1576000816000905550600101611fd9565b5090565b600061200861200384612f09565b612ed8565b90508281526020810184848401111561202057600080fd5b61202b8482856130db565b509392505050565b600061204661204184612f39565b612ed8565b90508281526020810184848401111561205e57600080fd5b6120698482856130db565b509392505050565b60008135905061208081613296565b92915050565b600081359050612095816132ad565b92915050565b6000813590506120aa816132c4565b92915050565b6000815190506120bf816132c4565b92915050565b600082601f8301126120d657600080fd5b81356120e6848260208601611ff5565b91505092915050565b600082601f83011261210057600080fd5b8135612110848260208601612033565b91505092915050565b600081359050612128816132db565b92915050565b60006020828403121561214057600080fd5b600061214e84828501612071565b91505092915050565b6000806040838503121561216a57600080fd5b600061217885828601612071565b925050602061218985828601612071565b9150509250929050565b6000806000606084860312156121a857600080fd5b60006121b686828701612071565b93505060206121c786828701612071565b92505060406121d886828701612119565b9150509250925092565b600080600080608085870312156121f857600080fd5b600061220687828801612071565b945050602061221787828801612071565b935050604061222887828801612119565b925050606085013567ffffffffffffffff81111561224557600080fd5b612251878288016120c5565b91505092959194509250565b6000806040838503121561227057600080fd5b600061227e85828601612071565b925050602061228f85828601612086565b9150509250929050565b600080604083850312156122ac57600080fd5b60006122ba85828601612071565b92505060206122cb85828601612119565b9150509250929050565b6000602082840312156122e757600080fd5b60006122f58482850161209b565b91505092915050565b60006020828403121561231057600080fd5b600061231e848285016120b0565b91505092915050565b60006020828403121561233957600080fd5b600082013567ffffffffffffffff81111561235357600080fd5b61235f848285016120ef565b91505092915050565b60006020828403121561237a57600080fd5b600061238884828501612119565b91505092915050565b61239a81613067565b82525050565b6123a981613079565b82525050565b60006123ba82612f69565b6123c48185612f7f565b93506123d48185602086016130ea565b6123dd81613285565b840191505092915050565b60006123f382612f74565b6123fd8185612f90565b935061240d8185602086016130ea565b61241681613285565b840191505092915050565b600061242c82612f74565b6124368185612fa1565b93506124468185602086016130ea565b80840191505092915050565b600061245f601c83612f90565b91507f4d696e7420776f756c6420657863656564206d617820737570706c79000000006000830152602082019050919050565b600061249f603283612f90565b91507f4552433732313a207472616e7366657220746f206e6f6e20455243373231526560008301527f63656976657220696d706c656d656e74657200000000000000000000000000006020830152604082019050919050565b6000612505602683612f90565b91507f4f776e61626c653a206e6577206f776e657220697320746865207a65726f206160008301527f64647265737300000000000000000000000000000000000000000000000000006020830152604082019050919050565b600061256b601c83612f90565b91507f4552433732313a20746f6b656e20616c7265616479206d696e746564000000006000830152602082019050919050565b60006125ab602483612f90565b91507f4552433732313a207472616e7366657220746f20746865207a65726f2061646460008301527f72657373000000000000000000000000000000000000000000000000000000006020830152604082019050919050565b6000612611601983612f90565b91507f4552433732313a20617070726f766520746f2063616c6c6572000000000000006000830152602082019050919050565b6000612651601f83612f90565b91507f45746865722076616c75652073656e74206973206e6f7420636f7272656374006000830152602082019050919050565b6000612691602c83612f90565b91507f4552433732313a206f70657261746f7220717565727920666f72206e6f6e657860008301527f697374656e7420746f6b656e00000000000000000000000000000000000000006020830152604082019050919050565b60006126f7603883612f90565b91507f4552433732313a20617070726f76652063616c6c6572206973206e6f74206f7760008301527f6e6572206e6f7220617070726f76656420666f7220616c6c00000000000000006020830152604082019050919050565b600061275d602a83612f90565b91507f4552433732313a2062616c616e636520717565727920666f7220746865207a6560008301527f726f2061646472657373000000000000000000000000000000000000000000006020830152604082019050919050565b60006127c3602983612f90565b91507f4552433732313a206f776e657220717565727920666f72206e6f6e657869737460008301527f656e7420746f6b656e00000000000000000000000000000000000000000000006020830152604082019050919050565b6000612829602e83612f90565b91507f45524337323155524953746f726167653a2055524920736574206f66206e6f6e60008301527f6578697374656e7420746f6b656e0000000000000000000000000000000000006020830152604082019050919050565b600061288f602083612f90565b91507f4552433732313a206d696e7420746f20746865207a65726f20616464726573736000830152602082019050919050565b60006128cf603183612f90565b91507f45524337323155524953746f726167653a2055524920717565727920666f722060008301527f6e6f6e6578697374656e7420746f6b656e0000000000000000000000000000006020830152604082019050919050565b6000612935602c83612f90565b91507f4552433732313a20617070726f76656420717565727920666f72206e6f6e657860008301527f697374656e7420746f6b656e00000000000000000000000000000000000000006020830152604082019050919050565b600061299b602083612f90565b91507f4f776e61626c653a2063616c6c6572206973206e6f7420746865206f776e65726000830152602082019050919050565b60006129db602983612f90565b91507f4552433732313a207472616e73666572206f6620746f6b656e2074686174206960008301527f73206e6f74206f776e00000000000000000000000000000000000000000000006020830152604082019050919050565b6000612a41602f83612f90565b91507f4552433732314d657461646174613a2055524920717565727920666f72206e6f60008301527f6e6578697374656e7420746f6b656e00000000000000000000000000000000006020830152604082019050919050565b6000612aa7602183612f90565b91507f4552433732313a20617070726f76616c20746f2063757272656e74206f776e6560008301527f72000000000000000000000000000000000000000000000000000000000000006020830152604082019050919050565b6000612b0d603183612f90565b91507f4552433732313a207472616e736665722063616c6c6572206973206e6f74206f60008301527f776e6572206e6f7220617070726f7665640000000000000000000000000000006020830152604082019050919050565b612b6f816130d1565b82525050565b6000612b818285612421565b9150612b8d8284612421565b91508190509392505050565b6000602082019050612bae6000830184612391565b92915050565b6000608082019050612bc96000830187612391565b612bd66020830186612391565b612be36040830185612b66565b8181036060830152612bf581846123af565b905095945050505050565b6000602082019050612c1560008301846123a0565b92915050565b60006020820190508181036000830152612c3581846123e8565b905092915050565b60006020820190508181036000830152612c5681612452565b9050919050565b60006020820190508181036000830152612c7681612492565b9050919050565b60006020820190508181036000830152612c96816124f8565b9050919050565b60006020820190508181036000830152612cb68161255e565b9050919050565b60006020820190508181036000830152612cd68161259e565b9050919050565b60006020820190508181036000830152612cf681612604565b9050919050565b60006020820190508181036000830152612d1681612644565b9050919050565b60006020820190508181036000830152612d3681612684565b9050919050565b60006020820190508181036000830152612d56816126ea565b9050919050565b60006020820190508181036000830152612d7681612750565b9050919050565b60006020820190508181036000830152612d96816127b6565b9050919050565b60006020820190508181036000830152612db68161281c565b9050919050565b60006020820190508181036000830152612dd681612882565b9050919050565b60006020820190508181036000830152612df6816128c2565b9050919050565b60006020820190508181036000830152612e1681612928565b9050919050565b60006020820190508181036000830152612e368161298e565b9050919050565b60006020820190508181036000830152612e56816129ce565b9050919050565b60006020820190508181036000830152612e7681612a34565b9050919050565b60006020820190508181036000830152612e9681612a9a565b9050919050565b60006020820190508181036000830152612eb681612b00565b9050919050565b6000602082019050612ed26000830184612b66565b92915050565b6000604051905081810181811067ffffffffffffffff82111715612eff57612efe613256565b5b8060405250919050565b600067ffffffffffffffff821115612f2457612f23613256565b5b601f19601f8301169050602081019050919050565b600067ffffffffffffffff821115612f5457612f53613256565b5b601f19601f8301169050602081019050919050565b600081519050919050565b600081519050919050565b600082825260208201905092915050565b600082825260208201905092915050565b600081905092915050565b6000612fb7826130d1565b9150612fc2836130d1565b9250827fffffffffffffffffffffffffffffffffffffffffffffffffffffffffffffffff03821115612ff757612ff66131c9565b5b828201905092915050565b600061300d826130d1565b9150613018836130d1565b925082613028576130276131f8565b5b828204905092915050565b600061303e826130d1565b9150613049836130d1565b92508282101561305c5761305b6131c9565b5b828203905092915050565b6000613072826130b1565b9050919050565b60008115159050919050565b60007fffffffff0000000000000000000000000000000000000000000000000000000082169050919050565b600073ffffffffffffffffffffffffffffffffffffffff82169050919050565b6000819050919050565b82818337600083830152505050565b60005b838110156131085780820151818401526020810190506130ed565b83811115613117576000848401525b50505050565b6000600282049050600182168061313557607f821691505b6020821081141561314957613148613227565b5b50919050565b600061315a826130d1565b91507fffffffffffffffffffffffffffffffffffffffffffffffffffffffffffffffff82141561318d5761318c6131c9565b5b600182019050919050565b60006131a3826130d1565b91506131ae836130d1565b9250826131be576131bd6131f8565b5b828206905092915050565b7f4e487b7100000000000000000000000000000000000000000000000000000000600052601160045260246000fd5b7f4e487b7100000000000000000000000000000000000000000000000000000000600052601260045260246000fd5b7f4e487b7100000000000000000000000000000000000000000000000000000000600052602260045260246000fd5b7f4e487b7100000000000000000000000000000000000000000000000000000000600052604160045260246000fd5b6000601f19601f8301169050919050565b61329f81613067565b81146132aa57600080fd5b50565b6132b681613079565b81146132c157600080fd5b50565b6132cd81613085565b81146132d857600080fd5b50565b6132e4816130d1565b81146132ef57600080fd5b5056fea2646970667358221220592700fa37481305cc317e2c31ab09fd33c029154e7df378191b258805c6295664736f6c63430008000033",
  "linkReferences": {},
  "deployedLinkReferences": {}
}